{
    "_format": "hh-sol-artifact-1",
    "contractName": "LenderLabMinterFacet",
    "sourceName": "contracts/facets/LenderLabMinterFacet.sol",
    "abi": [
        {
            "inputs": [],
            "name": "MintToZeroAddress",
            "type": "error"
        },
        {
            "inputs": [],
            "name": "MintZeroQuantity",
            "type": "error"
        },
        {
            "inputs": [],
            "name": "TransferToNonERC721ReceiverImplementer",
            "type": "error"
        },
        {
            "anonymous": false,
            "inputs": [
                {
                    "indexed": true,
                    "internalType": "uint256",
                    "name": "tokenId",
                    "type": "uint256"
                },
                {
                    "indexed": true,
                    "internalType": "address",
                    "name": "owner",
                    "type": "address"
                },
                {
                    "components": [
                        {
                            "internalType": "string",
                            "name": "key",
                            "type": "string"
                        },
                        {
                            "internalType": "enum AttributeType",
                            "name": "attributeType",
                            "type": "uint8"
                        },
                        {
                            "internalType": "string",
                            "name": "value",
                            "type": "string"
                        }
                    ],
                    "indexed": false,
                    "internalType": "struct Attribute[]",
                    "name": "attributes",
                    "type": "tuple[]"
                }
            ],
            "name": "LlMinted",
            "type": "event"
        },
        {
            "inputs": [
                {
                    "components": [
                        {
                            "internalType": "string",
                            "name": "key",
                            "type": "string"
                        },
                        {
                            "internalType": "enum AttributeType",
                            "name": "attributeType",
                            "type": "uint8"
                        },
                        {
                            "internalType": "string",
                            "name": "value",
                            "type": "string"
                        }
                    ],
                    "internalType": "struct Attribute[]",
                    "name": "metadata",
                    "type": "tuple[]"
                }
            ],
            "name": "llMint",
            "outputs": [
                {
                    "internalType": "uint256",
                    "name": "",
                    "type": "uint256"
                }
            ],
            "stateMutability": "nonpayable",
            "type": "function"
        }
    ],
    "bytecode": "0x608060405234801561001057600080fd5b50610e2b806100206000396000f3fe608060405234801561001057600080fd5b506004361061002b5760003560e01c80630918e1d714610030575b600080fd5b61004361003e36600461093b565b610055565b60405190815260200160405180910390f35b6000336100967fc8fcad8db84d3cc18b4c41d551ea0ee66dd599cde068d998e57d5e09332c13205473ffffffffffffffffffffffffffffffffffffffff1690565b73ffffffffffffffffffffffffffffffffffffffff1614806100b757503033145b610122576040517f08c379a000000000000000000000000000000000000000000000000000000000815260206004820152601f60248201527f6e6f7420617574686f72697a656420746f2063616c6c2066756e6374696f6e0060448201526064015b60405180910390fd5b610195333360016040518060400160405280600281526020017f307800000000000000000000000000000000000000000000000000000000000081525060016101887f93e809ada3cf5b31b7706b8d066b0c0bb88561defd7e5e0c17ade53797b935d590565b6004019493929190610283565b7f93e809ada3cf5b31b7706b8d066b0c0bb88561defd7e5e0c17ade53797b935d9546000906101c690600190610a87565b905060005b835181101561022d5761021b7f264f51f07aa3d51ea784d74d6ff6227c6463cf789f1512b893918a8860f146e46000018386848151811061020e5761020e610aa0565b60200260200101516104bb565b8061022581610ab6565b9150506101cb565b503373ffffffffffffffffffffffffffffffffffffffff16817f4f2dca4723380235aa5ae8239789832ff2d0582abe75c0ce228ece1286296e0b856040516102759190610b36565b60405180910390a392915050565b855473ffffffffffffffffffffffffffffffffffffffff85166102d2576040517f2e07630000000000000000000000000000000000000000000000000000000000815260040160405180910390fd5b8360000361030c576040517fb562e8dd00000000000000000000000000000000000000000000000000000000815260040160405180910390fd5b73ffffffffffffffffffffffffffffffffffffffff85166000818152600689016020908152604080832080547fffffffffffffffffffffffffffffffff00000000000000000000000000000000811667ffffffffffffffff8083168c018116918217680100000000000000007fffffffffffffffffffffffffffffffffffffffffffffffff000000000000000090941690921783900481168c0181169092021790915585845260058c01909252822080547fffffffff00000000000000000000000000000000000000000000000000000000169093177401000000000000000000000000000000000000000042909216919091021790915581905b858110156104af57604051829073ffffffffffffffffffffffffffffffffffffffff8916906000907fddf252ad1be2c89b69c2b068fc378daa952ba7f163c4a11628f55a4df523b3ef908290a483801561046c575061046a8860008985896106da565b155b156104a3576040517fd1a57ed600000000000000000000000000000000000000000000000000000000815260040160405180910390fd5b60019182019101610407565b50875550505050505050565b60008281526020849052604090205460ff1615610534576040517f08c379a000000000000000000000000000000000000000000000000000000000815260206004820152601560248201527f546f6b656e20686173206265656e206275726e656400000000000000000000006044820152606401610119565b60008281526003840160205260409081902082519151909161055591610c02565b90815260200160405180910390205460001480156105af575060008281526001840160205260409081902082519151909161058f91610c02565b908152602001604051809103902060020180546105ab90610c1e565b1590505b15610635576000828152600284016020908152604082208351815460018101835591845291909220909101906105e59082610ca3565b50600082815260028401602052604090205461060390600190610a87565b60008381526003850160205260409081902083519151909161062491610c02565b908152604051908190036020019020555b60008281526001840160205260409081902082519151839261065691610c02565b908152604051908190036020019020815181906106739082610ca3565b5060208201516001808301805490917fffffffffffffffffffffffffffffffffffffffffffffffffffffffffffffff00909116908360068111156106b9576106b9610b20565b0217905550604082015160028201906106d29082610ca3565b505050505050565b600073ffffffffffffffffffffffffffffffffffffffff84163b1561084e576040517f150b7a0200000000000000000000000000000000000000000000000000000000815273ffffffffffffffffffffffffffffffffffffffff85169063150b7a0290610751908990899088908890600401610d63565b6020604051808303816000875af192505050801561078c575060408051601f3d908101601f1916820190925261078991810190610dac565b60015b610803573d8080156107ba576040519150601f19603f3d011682016040523d82523d6000602084013e6107bf565b606091505b5080516000036107fb576040517fd1a57ed600000000000000000000000000000000000000000000000000000000815260040160405180910390fd5b805181602001fd5b7fffffffff00000000000000000000000000000000000000000000000000000000167f150b7a0200000000000000000000000000000000000000000000000000000000149050610852565b5060015b95945050505050565b634e487b7160e01b600052604160045260246000fd5b6040516060810167ffffffffffffffff811182821017156108945761089461085b565b60405290565b604051601f8201601f1916810167ffffffffffffffff811182821017156108c3576108c361085b565b604052919050565b600082601f8301126108dc57600080fd5b813567ffffffffffffffff8111156108f6576108f661085b565b6109096020601f19601f8401160161089a565b81815284602083860101111561091e57600080fd5b816020850160208301376000918101602001919091529392505050565b6000602080838503121561094e57600080fd5b823567ffffffffffffffff8082111561096657600080fd5b818501915085601f83011261097a57600080fd5b81358181111561098c5761098c61085b565b8060051b61099b85820161089a565b91825283810185019185810190898411156109b557600080fd5b86860192505b83831015610a64578235858111156109d35760008081fd5b86016060818c03601f19018113156109eb5760008081fd5b6109f3610871565b8983013588811115610a055760008081fd5b610a138e8c838701016108cb565b82525060408084013560078110610a2a5760008081fd5b828c0152918301359188831115610a415760008081fd5b610a4f8e8c858701016108cb565b908201528452505091860191908601906109bb565b9998505050505050505050565b634e487b7160e01b600052601160045260246000fd5b81810381811115610a9a57610a9a610a71565b92915050565b634e487b7160e01b600052603260045260246000fd5b60006000198203610ac957610ac9610a71565b5060010190565b60005b83811015610aeb578181015183820152602001610ad3565b50506000910152565b60008151808452610b0c816020860160208601610ad0565b601f01601f19169290920160200192915050565b634e487b7160e01b600052602160045260246000fd5b60006020808301818452808551808352604092508286019150828160051b8701018488016000805b84811015610bf3577fffffffffffffffffffffffffffffffffffffffffffffffffffffffffffffffc08a8503018652825160608151818752610ba282880182610af4565b9150508982015160078110610bc557634e487b7160e01b85526021600452602485fd5b868b0152908801518582038987015290610bdf8183610af4565b978a01979550505091870191600101610b5e565b50919998505050505050505050565b60008251610c14818460208701610ad0565b9190910192915050565b600181811c90821680610c3257607f821691505b602082108103610c5257634e487b7160e01b600052602260045260246000fd5b50919050565b601f821115610c9e57600081815260208120601f850160051c81016020861015610c7f5750805b601f850160051c820191505b818110156106d257828155600101610c8b565b505050565b815167ffffffffffffffff811115610cbd57610cbd61085b565b610cd181610ccb8454610c1e565b84610c58565b602080601f831160018114610d065760008415610cee5750858301515b600019600386901b1c1916600185901b1785556106d2565b600085815260208120601f198616915b82811015610d3557888601518255948401946001909101908401610d16565b5085821015610d535787850151600019600388901b60f8161c191681555b5050505050600190811b01905550565b600073ffffffffffffffffffffffffffffffffffffffff808716835280861660208401525083604083015260806060830152610da26080830184610af4565b9695505050505050565b600060208284031215610dbe57600080fd5b81517fffffffff0000000000000000000000000000000000000000000000000000000081168114610dee57600080fd5b939250505056fea26469706673582212205ea474300036910ce82d1b87fae540ef4ab951771e97b4a107a5be88efaa24ec64736f6c63430008100033",
    "linkReferences": {},
    "deployedLinkReferences": {}
}